:100000000C9434000C9451000C9451000C94510049
:100010000C9451000C9451000C9451000C9451001C
:100020000C9451000C9451000C9451000C9451000C
:100030000C9451000C9451000C94EF130C9451004B
:100040000C9451000C9451000C9451000C945100EC
:100050000C9451000C9451000C9451000C945100DC
:100060000C9451000C94510011241FBECFEFD8E026
:10007000DEBFCDBF11E0A0E0B1E0ECEEF8E202C0DF
:1000800005900D92AE33B107D9F727E0AEE3B1E0AA
:1000900001C01D92A338B207E1F70E9468000C94DA
:1000A00074140C9400000E94E8008FE091E00E941C
:1000B000481488EE93E00E94CF05F5CF87E191E0E8
:1000C0000E94481484EF91E00E94CF05F7CF089575
:1000D0000E94E50060E170E080E090E00E94A200F4
:1000E0008EE191E00E944814E12CF12C04E020E024
:1000F00030E045E550E067E271E08EE590E00E9477
:10010000960103E020E030E045E550E06FE271E069
:1001100083E590E00E9496010E942003FFCFCF93D9
:10012000C82F8A3059F0E0ECF0E0908195FFFDCFC8
:10013000C093C60080E090E0CF9108958DE00E94CA
:100140008F00F1CF362F462F572F682F792FBB27DF
:10015000A72F962F852F8093C5003093C40082E08F
:100160008093C000E1ECF0E088E1808386E080933A
:10017000C20080818068808380E091E09093800756
:1001800080937F070895E0ECF0E0908195FFFDCF2C
:100190008093C60008950F931F93CF93DF93C82FCA
:1001A000D92F062F172F0115110551F00C0F1D1F08
:1001B000FE01219680810E94C3000C171D07C1F724
:1001C000DF91CF911F910F910895259A2D9A08954F
:1001D00085B190E2892785B9089578948FB7809387
:1001E0003E0108958FB780933E01F8940895809161
:1001F0003E018FBF0895E0916501F0916601808115
:10020000811107C08FEF9FEF9093450180934401C8
:100210000895E0916501F09166010580F681E02D79
:1002200080819181909345018093440108950F93BB
:100230001F93CF93DF93C82FD92F00914D011091B9
:100240004E0180913F019091400102960E946212FE
:10025000C00FD11FE0913F01F0914001D383C283D1
:10026000C017D10788F460913F01709140018091DF
:100270006301909164016E5F7F4F0E943112DF91A4
:10028000CF911F910F91089560913F0170914001AE
:1002900080916501909166016E5F7F4F0E943112DF
:1002A0008091440190914501C817D90740F7D09338
:1002B0004501C0934401E3CF01E511E00F2EF9E7BA
:1002C000EF2EF1E0FF2EF02D04C00E943A130E94A1
:1002D000670080915001882321F10FB6F8940F92A6
:1002E000D8011596ED91FC91C681D781CE01029679
:1002F0000E94621280914F01815080934F01809142
:1003000050018150809350010F900FBE8F89988DBE
:100310000E942E14CE010E942E1480915001811152
:10032000DCCFF7018081823080F6D1CF5F926F926F
:100330007F928F929F92AF92BF92CF92DF92EF9275
:10034000FF920F931F93CF93DF93782E192FA62E32
:10035000B72EC42ED52E622E532E8E2C9F2CC60166
:100360000E94F213E82EF92E8FEFE114F10409F444
:1003700070C086E290E00E94F213C82FD92F209718
:1003800009F463C086E2FE0111928A95E9F7F88EBE
:10039000EF8AF1E0CF1AD108CE0CDF1CA114B10412
:1003A00069F0F501DE015996C501089621912D935A
:1003B000222319F0E817F907C9F718A2043008F04A
:1003C00003E00E8B7E0182E0E80EF11CC7010E9463
:1003D0000B12CE010C960E940B12D987C88784E0BD
:1003E00090E0801B91099D878C87DB8BCA8B462D03
:1003F000552D672D712FC6010E948B12998388831A
:100400008114910419F0F401D183C0830FB6F894DC
:100410000F9280914F018F5F80934F0180913F0138
:1004200090914001892B29F180914B0181112AC0C3
:10043000E0913F01F091400196898E89891710F172
:10044000D0934001C0933F011DC0C7010E942E14EC
:100450008FEFDF91CF911F910F91FF90EF90DF9081
:10046000CF90BF90AF909F908F907F906F905F9054
:100470000895D0934001C0933F0180914F01813096
:1004800009F44BC0809146018F5F809346018E89AD
:1004900090914C01981710F480934C0190E0FC016E
:1004A000EE0FFF1FEE0FFF1FEE0FFF1FE80FF91FEC
:1004B000E758FE4F0180F281E02DFD83EC838481BB
:1004C00095819F838E83A481B5811396FC92EE92D1
:1004D0001297F582E4828E8990E0FC01EE0FFF1FF7
:1004E000EE0FFF1FEE0FFF1FE80FF91FE758FE4F3B
:1004F000FB87EA8780818F5F80830F900FBE80919A
:100500004B018823D9F1E0913F01F0914001968998
:100510008E89981778F181E09CCF89E791E00E945D
:10052000FB1182E891E00E94FB118BE891E00E94B0
:10053000FB1184E991E00E94FB1180E791E00E94A9
:10054000FB1187E691E00E94FB118AE591E00E9491
:10055000FB1181E591E00E94FB1180E791E090930F
:1005600066018093650187E691E090936401809332
:10057000630188CF0E943A1381E06BCF81E069CF9D
:100580000F931F93CF93DF93C82FD92F0FB6F894F3
:100590000F92209709F441C08E010E5F1F4FC801D2
:1005A0000E9462128C899D89892B21F0CE010C96C4
:1005B0000E946212809146018F5F80934601809174
:1005C0003F01909140018C179D0761F180914F018F
:1005D000815080934F010E94FB000F900FBE8091CD
:1005E0003F01909140018C179D0739F08F89988DBC
:1005F0000E942E14CE010E942E1480914B0188235C
:1006000039F080913F01909140018C179D07A9F02E
:10061000DF91CF911F910F910895C0913F01D0912B
:100620004001BACFB80181E591E00E940F1280919C
:1006300050018F5F80935001D0CF0E943A13E8CFD2
:10064000EF92FF920F930F2EF2E4EF2EF1E0FF2EC8
:10065000F02D00E020E030E045E550E068E371E097
:100660008CE591E00E949601813031F080910E017D
:100670000F91FF90EF900895F8948FEF9FEF909374
:1006800045018093440181E080934B0110924E011B
:1006900010924D010E94FA12E9CFF89410924B018A
:1006A0000E9439130895809141018F5F8093410129
:1006B00008950FB6F8940F9280914D0190914E01DC
:1006C0000F900FBE089580914D0190914E010895B5
:1006D00080914F010895282F392F2115310519F0E8
:1006E000C9014996089520913F0130914001F8CF0A
:1006F0000F931F93CF93DF9380914101811110C11C
:10070000C0914D01D0914E018E010F5F1F4F10938C
:100710004E0100934D010115110591F080914401A6
:10072000909145010817190708F4DEC0E0916501B2
:10073000F091660180818823D9F080E091E07FC04C
:10074000809165019091660120916301309164016F
:100750003093660120936501909364018093630157
:10076000809147018F5F809347010E94FB00D6CFA5
:1007700080E02FEF3FEF3093450120934401B5C057
:100780003093450120934401B0C0268137811296F1
:100790003C932E9311977EC0158A148A2C91215078
:1007A0002C93268930914C01321710F420934C0180
:1007B00030E0D901AA0FBB1FAA0FBB1FAA0FBB1F96
:1007C000A20FB31FA758BE4F11960D90BC91A02D3C
:1007D000B583A48314962D913C9115973783268376
:1007E00014962D913C911597E9015B834A831596E8
:1007F0005C934E931497268930E0D901AA0FBB1F52
:10080000AA0FBB1FAA0FBB1FA20FB31FA758BE4F33
:10081000B387A2872C912F5F2C93A0913F01B091B9
:100820004001368956962C91231708F4892FE091C0
:100830006501F09166012081222309F49ACFE091AD
:100840006501F09166010580F681E02D0680F78153
:10085000E02D228133810217130708F491CFA2857E
:10086000B3852481358146815781E9015D834C83BD
:100870002681378144815581E9015B834A83AF0139
:100880004E5F5F4F11962D913C91129724173507BB
:1008900009F47BCF138612862C9121502C93A489C6
:1008A000B589109709F47DCF2685378560897189D0
:1008B000E9017D836C832089318966857785E9012B
:1008C0007B836A8311966D917C9112979F01245FBF
:1008D0003F4F6217730709F05FCF20893189129665
:1008E0003C932E93119758CF80E0E0913F01F09117
:1008F0004001268930E0F901EE0FFF1FEE0FFF1FC8
:10090000EE0FFF1FE20FF31FE758FE4F908192306A
:1009100008F081E090914801992361F081E00AC0DC
:100920008091490190914A01019690934A018093E8
:10093000490180E0DF91CF911F910F9108951F939E
:10094000CF93DF930FB6F8940F92809141018150BD
:1009500080934101809141018111D1C080914F016B
:10096000882309F4D3C080915A01882309F4A9C0CF
:100970006AE571E021E013C08089918912969C9309
:100980008E9311972CC08681978112969C938E939B
:10099000119745C0DB018C91882309F48EC0DB01DF
:1009A0001596ED91FC910680F781E02DA489B5891B
:1009B0008685978540895189EC015D834C838089C8
:1009C000918946855785EC015B834A83CF010C965C
:1009D00011964D915C9112974817590769F2158A43
:1009E000148A8C9181508C93A285B38584819581E2
:1009F00046815781EC015D834C83868197814481D8
:100A00005581EC015B834A83AF014E5F5F4F1196C6
:100A10008D919C9112978417950709F4B4CF138692
:100A200012868C9181508C93868990914C019817F5
:100A300010F480934C0190E0DC01AA0FBB1FAA0FB9
:100A4000BB1FAA0FBB1FA80FB91FA758BE4F1196F7
:100A50000D90BC91A02DB583A48314968D919C918B
:100A600015979783868314968D919C911597EC0129
:100A70005B834A8315965C934E931497868990E026
:100A8000DC01AA0FBB1FAA0FBB1FAA0FBB1FA80F19
:100A9000B91FA758BE4FB387A2878C918F5F8C93E5
:100AA000A0913F01B0914001968956968C9198177C
:100AB00008F470CF209348016DCFEF2B11F00E9406
:100AC000FB00C0914901D0914A01209781F011E0CB
:100AD00003C02197209739F00E9478038823C9F337
:100AE00010934801F6CF10924A011092490180916B
:100AF0004801882329F00E943A1381E001C080E078
:100B00000F900FBEDF91CF911F91089580E0F8CF35
:100B10000F931F93CF93DF93082F192FC62FD72F33
:100B20000E94530320914D0130914E01F8018081C4
:100B30009181C80FD91F2817390778F4C817D9072A
:100B400020F0D183C083C0E01DC02C173D0780F08A
:100B5000F801D183C083C0E015C0C817D90740F0A1
:100B60002C173D0728F0F801D183C083C0E00AC0EC
:100B7000F801D183C08360E0CE01821B930B0E94F9
:100B80001701C1E00E949F04882331F08C2FDF9170
:100B9000CF911F910F9108950E943A13F7CFCF93F1
:100BA000DF93C82FD92F209751F00E94530360E0A4
:100BB000CE010E9417010E949F04811102C00E9471
:100BC0003A13DF91CF910895CF93DF93C82FD92F98
:100BD0000E9453030FB6F8940F92809149019091AF
:100BE0004A018C0F9D1F90934A01809349010F90F9
:100BF0000FBE0E949F04DF91CF9108958091410123
:100C0000882321F081E080934801089510924801E3
:100C100020914C01822F90E0FC01EE0FFF1FEE0FA0
:100C2000FF1FEE0FFF1FE80FF91FE758FE4F30813F
:100C3000311111C02150822F90E0FC01EE0FFF1FF7
:100C4000EE0FFF1FEE0FFF1FE80FF91FE758FE4FD3
:100C50003081332379F3AC01440F551F440F551FE6
:100C6000440F551F480F591FDA01A758BE4F119660
:100C7000ED91FC9112970280F381E02D1296FC9386
:100C8000EE93119744585E4FE417F507B9F0FC0155
:100C9000EE0FFF1FEE0FFF1FEE0FFF1FE80FF91FF4
:100CA000E758FE4F0180F281E02D86819781909375
:100CB000400180933F0120934C010895428153816C
:100CC000FD0152834183E3CFCF93DF93D62FC72F0C
:100CD00060913F0170914001645F7F4F0E9431122B
:100CE00061E08D2F9C2F0E941701DF91CF91089515
:100CF000CF93DF93E82FF92FA0913F01B0914001EE
:100D000070681D967C936E931C97A181B281C091EF
:100D10003F01D0914001BF87AE87C0913F01D09184
:100D2000400114968D919C911597998B888B2091F9
:100D30003F01309140011496CD91DC911597245FCD
:100D40003F4F3B832A8320913F0130914001245F34
:100D50003F4F15963C932E931497A0913F01B0916D
:100D600040015596FC93EE93549790819F5F90833A
:100D700061E0CA010E941701DF91CF910895CF93DE
:100D8000DF93DC011596ED91FC910680F781E02D53
:100D9000A489B589C685D785808991899D838C83EF
:100DA000C089D189868597859B838A839F01245F2B
:100DB0003F4F11968D919C9112978217930709F4DA
:100DC00071C0158A148A8C9181508C938091410155
:100DD000811176C0A285B385C481D5818681978132
:100DE0009D838C83C681D781848195819B838A83EF
:100DF0009F012E5F3F4F11968D919C911297821704
:100E0000930709F456C0138612868C9181508C93F7
:100E1000868990914C01981710F480934C0190E0D2
:100E2000DC01AA0FBB1FAA0FBB1FAA0FBB1FA80F75
:100E3000B91FA758BE4F11960D90BC91A02DB58338
:100E4000A48314968D919C9115979783868314960D
:100E5000CD91DC9115973B832A8315963C932E9375
:100E60001497868990E0DC01AA0FBB1FAA0FBB1F55
:100E7000AA0FBB1FA80FB91FA758BE4FB387A287E1
:100E80008C918F5F8C93A0913F01B0914001968926
:100E900056968C91891780F581E080934801DF9107
:100EA000CF9108958089918912969C938E93119782
:100EB00088CF8681978112969C938E931197A3CFAA
:100EC0004AE551E0DA011196CD91DC91D787C687CA
:100ED0008C819D81918B808B8C819D81DC0113960F
:100EE0003C932E9312973D832C83558B448BDA01D0
:100EF0008C918F5F8C93C7CF80E0D1CFCF93DF935E
:100F0000A82FB92F706811967C936E931696ED9169
:100F1000FC91179718964D915C91199712968D91A7
:100F20009C91139714962D913C911597EC013D835C
:100F30002C8314968D919C91159712962D913C912E
:100F40001397EC013B832A83EA0189819A818A17EE
:100F50009B0709F470C019961C921E921897DA012B
:100F60008C9181508C93A285B385C481D581868173
:100F700097819D838C83C681D781848195819B8352
:100F80008A839F012E5F3F4F11968D919C911297FE
:100F90008217930709F456C0138612868C918150EC
:100FA0008C93868990914C01981710F480934C0192
:100FB00090E0DC01AA0FBB1FAA0FBB1FAA0FBB1F2B
:100FC000A80FB91FA758BE4F11960D90BC91A02D28
:100FD000B583A48314968D919C91159797838683EE
:100FE0001496CD91DC9115973B832A8315963C93FB
:100FF0002E931497868990E0DC01AA0FBB1FAA0FDD
:10100000BB1FAA0FBB1FA80FB91FA758BE4FB3879E
:10101000A2878C918F5F8C93A0913F01B09140018A
:10102000968956968C91891718F481E0809348012F
:10103000DF91CF91089514968D919C9115979A8385
:10104000898389CF8681978112969C938E9311977D
:10105000A3CFE82FF92F0FB6F8940F928091470194
:10106000808380914D0190914E01928381830F90F6
:101070000FBE0895E82FF92F80914701808380915A
:101080004D0190914E01928381830895E82FF92FAD
:10109000A62FB72F0FB6F8940F9220914D013091E3
:1010A0004E0181819281409147015081541739F05E
:1010B0002817390720F01D921C9281E00CC04D9139
:1010C0005C911197B901681B790B6417750730F0B3
:1010D0001D921C9281E00F900FBE0895421B530B8E
:1010E000480F591F4D935C93CF010E943A0880E04E
:1010F000F2CF81E080934801089580913F01909163
:1011000040010895E0913F01F0914001848595856B
:10111000A0913F01B0914001E0913F01F091400169
:1011200056964C9124E030E0241B31093587248702
:1011300008951F93CF93DF9300D000D000D0CDB798
:10114000DEB7162F242F352F0FB6F8940F92E091AB
:101150003F01F0914001482F50E05E834D83CA016A
:10116000880F991F880F991FE80FF91F81A192A17D
:10117000A3A1B4A1892B8A2B8B2B61F4E0913F01B1
:10118000F0914001E40FF51F81E085A321153105A1
:1011900009F048C00F900FBE0FB6F8940F92E0917F
:1011A0003F01F09140018D819E81880F991F880F2A
:1011B000991FE80FF91F81A192A1A3A1B4A189836E
:1011C0009A83AB83BC83892B8A2B8B2B91F01123C1
:1011D00081F1E0913F01F09140018D819E81880F66
:1011E000991F880F991FE80FF91F11A212A213A2CD
:1011F00014A2E0913F01F0914001AD81BE81EA0F60
:10120000FB1F15A20F900FBE69817A818B819C8193
:101210000F900F900F900F900F900F90DF91CF9144
:101220001F91089561E0C9010E9417010E943A13BD
:10123000B1CFE0913F01F09140018D819E81880FF7
:10124000991F880F991FE80FF91F89819A81AB8137
:10125000BC810197A109B10981A392A3A3A3B4A35F
:10126000C8CF4F925F926F927F928F929F92AF9270
:10127000BF92CF92DF92EF92FF920F931F93CF9383
:10128000DF93C82F442E552E662E772E802E912E5A
:10129000A22EB32E0E2D1F2D8C2D9D2D0FB6F89442
:1012A0000F92E0913F01F0914001D0E0EC0FFD1F63
:1012B00025A1223031F1E0913F01F09140019E01E2
:1012C000220F331F220F331FE20FF31F41A152A140
:1012D00063A174A140945094609470944422552268
:1012E0006622772241A252A263A274A2E0913F013A
:1012F000F0914001EC0FFD1F21E025A3009709F0BC
:1013000040C00F900FBE0FB6F8940F920115110553
:10131000A1F0E0913F01F0914001CE01880F991FAB
:10132000880F991FE80FF91F81A192A1A3A1B4A171
:10133000F80180839183A283B383E0913F01F09110
:101340004001EC0FFD1F85A1823009F180E0E091A2
:101350003F01F0914001EC0FFD1F15A20F900FBE51
:10136000DF91CF911F910F91FF90EF90DF90CF9081
:10137000BF90AF909F908F907F906F905F904F90B5
:10138000089561E00E9417010E943A13BACFE091DC
:101390003F01F0914001CE01880F991F880F991FDE
:1013A000E80FF91F81A192A1A3A1B4A18094909408
:1013B000A094B09488219921AA21BB2181A392A352
:1013C000A3A3B4A381E0C3CF8F929F92AF92BF92A9
:1013D000CF92DF92EF92FF920F93CF93DF93A82FDC
:1013E000B92F822E932EA42EB52EEE2DFF2D0FB6E3
:1013F000F8940F92309781F0C62FD0E0CC0FDD1F0C
:10140000CC0FDD1FCA0FDB1FC9A0DAA0EBA0FCA028
:10141000C082D182E282F38270E0FD01E60FF71F05
:1014200085A192E095A3033009F44EC0C0F40130C9
:1014300039F10230C1F5660F771F660F771FFD0186
:10144000E60FF71F41A152A163A174A14F5F5F4F47
:101450006F4F7F4F41A352A363A374A324C00430F2
:1014600011F5823009F4B8C0660F771F660F771F39
:10147000FD01E60FF71F81A292A2A3A2B4A213C09E
:10148000660F771F660F771FFD01E60FF71F41A15B
:1014900052A163A174A1482959296A297B2941A332
:1014A00052A363A374A38130D9F081E00F900FBEE3
:1014B000DF91CF910F91FF90EF90DF90CF90BF9091
:1014C000AF909F908F900895660F771F660F771FDC
:1014D000FD01E60FF71F81A292A2A3A2B4A2E3CF5F
:1014E0001A96ED91FC911B971496CD91DC9115976E
:1014F00016968D919C9117979D838C831696CD910E
:10150000DC91179714968D919C9115979B838A83F4
:101510009D012E5F3F4F818192818217930709F4CD
:1015200050C01B961C921E921A9780818150808316
:1015300056968C91569790914C01981710F4809381
:101540004C0190E0FC01EE0FFF1FEE0FFF1FEE0FAE
:10155000FF1FE80FF91FE758FE4F0180F281E02DD1
:101560001596FC93EE9314978481958117969C931E
:101570008E931697C481D5813B832A833583248338
:1015800056968C91569790E0FC01EE0FFF1FEE0FE0
:10159000FF1FEE0FFF1FE80FF91FE758FE4F1B96C6
:1015A000FC93EE931A9780818F5F8083E0913F01D7
:1015B000F091400156969C918689891748F081E008
:1015C00075CF16968D919C91179792838183A9CFA1
:1015D0000E943A1381E06ACF80E068CF6F927F92D9
:1015E0008F929F92AF92BF92CF92DF92EF92FF9233
:1015F0000F93CF93DF93C82FD92F822E932EA42E33
:10160000B52EEE2DFF2D6C2C7D2C309799F0862F6A
:1016100090E0880F991F880F991F8C0F9D1FDC0188
:101620009196CD90DD90ED90FC909497C082D18200
:10163000E282F38270E0FE01E60FF71F85A192E0DF
:1016400095A3033009F44EC0C0F4013039F10230E3
:10165000C1F5660F771F660F771FFE01E60FF71FB4
:1016600041A152A163A174A14F5F5F4F6F4F7F4FA4
:1016700041A352A363A374A324C0043011F58230A4
:1016800009F4D3C0660F771F660F771FFE01E60FC0
:10169000F71F81A292A2A3A2B4A213C0660F771F64
:1016A000660F771FFE01E60FF71F41A152A163A14C
:1016B00074A1482959296A297B2941A352A363A30C
:1016C00074A38130D9F081E0DF91CF910F91FF9029
:1016D000EF90DF90CF90BF90AF909F908F907F90D2
:1016E0006F900895660F771F660F771FFE01E60F54
:1016F000F71F81A292A2A3A2B4A2E3CF80914101DD
:10170000811170C0EA85FB858C819D812E813F818E
:10171000DC0115963C932E9314978E819F812C812A
:101720003D81DC0113963C932E9312979E012E5F10
:101730003F4F818192818217930709F44EC01B8627
:101740001A868081815080838E8990914C019817F0
:1017500010F480934C0190E0FC01EE0FFF1FEE0FA0
:10176000FF1FEE0FFF1FE80FF91FE758FE4F018024
:10177000F281E02DFD83EC83848195819F838E83AC
:1017800084819581DC0113963C932E9312973583C7
:1017900024838E8990E0FC01EE0FFF1FEE0FFF1FE8
:1017A000EE0FFF1FE80FF91FE758FE4FFB87EA8790
:1017B00080818F5F8083E0913F01F09140019E899D
:1017C00086898917A0F56114710419F081E0F3018D
:1017D000808381E08093480177CF8E819F819283BF
:1017E0008183ADCFEAE5F1E0818192819F878E8789
:1017F000DC0114962D913C911597398B288B14960A
:101800004D915C919E01245F3F4FDA0113963C930A
:101810002E931297DC0115963C932E931497FD8B13
:10182000EC8B80818F5F8083C6CF80E04DCF81E0DD
:101830004BCF0F931F93CF93DF93C82FD92F042F34
:10184000152FE62FF0E0DE01AE0FBF1F95962C910D
:10185000959732E095963C93EE0FFF1FEE0FFF1F1A
:10186000EC0FFD1F41A152A163A174A14F5F5F4F17
:101870006F4F7F4F41A352A363A374A3213029F07C
:10188000DF91CF911F910F910895809141018111B6
:1018900071C0EA85FB858C819D812E813F81DC01B1
:1018A00015963C932E9314978E819F812C813D81B8
:1018B000DC0113963C932E9312979E012E5F3F4FAF
:1018C000818192818217930709F44FC01B861A8683
:1018D0008081815080838E8990914C01981710F4FB
:1018E00080934C0190E0FC01EE0FFF1FEE0FFF1FF5
:1018F000EE0FFF1FE80FF91FE758FE4F0180F2813E
:10190000E02DFD83EC83848195819F838E83848188
:101910009581DC0113963C932E9312973583248393
:101920008E8990E0FC01EE0FFF1FEE0FFF1FEE0F00
:10193000FF1FE80FF91FE758FE4FFB87EA878081FA
:101940008F5F8083E0913F01F09140019E898689FD
:10195000891708F095CF0115110519F081E0F801FC
:10196000808381E0809348018BCF8E819F81928319
:101970008183ACCFEAE5F1E0818192819F878E87F8
:10198000DC0114962D913C911597398B288B149678
:101990004D915C919E01245F3F4FDA0113963C9379
:1019A0002E931297DC0115963C932E931497FD8B82
:1019B000EC8B80818F5F8083C5CF282F392F211535
:1019C000310571F00FB6F8940F9270E0F901E60F4F
:1019D000F71F85A1823049F080E00F900FBE089577
:1019E00020913F0130914001EDCF15A281E0F5CF6C
:1019F000CF93DF9300D000D0CDB7DEB7E82FF92F1B
:101A0000822F932FA42FB52F309779F10FB6F8942A
:101A10000F9270E0660F771F660F771FE60FF71FB4
:101A200021A132A143A154A129833A834B835C8332
:101A300041A152A163A174A180959095A095B09504
:101A400084239523A623B72381A392A3A3A3B4A39E
:101A50000F900FBE69817A818B819C810F900F90CE
:101A60000F900F90DF91CF910895E0913F01F09199
:101A70004001CCCFE82FF92F0FB6F8940F92928D3A
:101A80000F900FBE81E0911180E008950F931F9396
:101A9000CF93DF93C82FD92F042F1A8D8C8D8823D5
:101AA000C1F1411117C0482F50E08A819B810E94EB
:101AB0003F142C8D8A819B81820F911D9B838A8389
:101AC0002C813D818217930720F1888199819B8326
:101AD0008A831FC0482F50E08E819F810E943F144F
:101AE0002C8D30E044275527421B530B8E819F815C
:101AF000821B930B9F838E832881398182179307E2
:101B000030F48C819D81840F951F9F838E830230DA
:101B100041F01F5F1A8F80E0DF91CF911F910F91ED
:101B200008951123B1F31150F4CFE82FF92F862F28
:101B3000972F448D4423A1F050E026813781240F54
:101B4000351F37832683648175812617370720F078
:101B50002081318137832683668177810E943F14FB
:101B60000895EF92FF920F931F93CF93082F192F91
:101B70000FB6F8940F92F801C68D1C16A4F47801E4
:101B8000F1E1EF0EF11C03C0C150CC2361F0F8016C
:101B90008189882341F0C7010E94BF068823A1F3F1
:101BA0000E947908F1CF8FEFF801868F0F900FBE5A
:101BB0000FB6F8940F92C58D1C16A4F47801F8E0C6
:101BC000EF0EF11C03C0C150CC2361F0F8018085F9
:101BD000882341F0C7010E94BF068823A1F30E9419
:101BE0007908F1CF8FEFF801858F0F900FBECF915D
:101BF0001F910F91FF90EF900895CF93DF93C82F1F
:101C0000D92F80E0209709F43DC08B8D8823C9F13E
:101C10004C8D0FB6F8940F9228813981F901849F79
:101C2000E00DF11D1124FD83EC831A8E3B832A8382
:101C30008150990B489FF001499FF00D11242E0F00
:101C40003F1F3F832E838FEF8D8F8E8F611110C0CA
:101C50008885811104C00F900FBE81E013C0CE01B2
:101C600008960E94BF068823B1F30E943A13F3CF6F
:101C7000CE0108960E94FB11CE0141960E94FB11F5
:101C8000EACF80E0DF91CF9108950F931F93CF9318
:101C9000DF93182F062FC0E0D0E08823B9F0869F8D
:101CA000C00111244F960E94F213C82FD92F2097FC
:101CB00069F0CE014F96011101C0CE01998388834E
:101CC0001B8F0C8F61E0CE010E94FD0DCE01DF91D4
:101CD000CF911F910F910895AF92BF92CF92DF9253
:101CE000EF92FF920F931F93CF93DF9300D000D01A
:101CF0000F92CDB7DEB7082F192FA62EB72E5D8312
:101D00004C83C22E0FB6F8940F92F801928D838DFA
:101D1000981758F0F2E02F1741F080E0780198E032
:101D2000E90EF11CDD24D39447C04C2D6A2D7B2D88
:101D3000C8010E94460DF8019189911115C08111C9
:101D40001CC00F900FBE81E00F900F900F900F906E
:101D50000F90DF91CF911F910F91FF90EF90DF9047
:101D6000CF90BF90AF900895C80141960E94BF06E2
:101D7000882339F30E943A13E4CF0E943A13E1CF4B
:101D80000F900FBE80E0E0CFCE0101960E943A088E
:101D900019C0158E22C0168E24C0C8010E94B10D34
:101DA0000E949F040FB6F8940F92F801228D8D2D9A
:101DB000938D291708F4B9CFEC81FD81EF2B01F346
:101DC000882311F30F900FBE0E9453030FB6F894AF
:101DD0000F92F801858D8F3FE1F2F801868D8F3FDC
:101DE000D1F20F900FBEBE016C5F7F4FCE01019606
:101DF0000E944608811119C00FB6F8940F92F8019D
:101E0000928D0F900FBE838D9813C7CF6C817D810B
:101E1000C7010E946406C8010E94B10D0E949F0480
:101E20008111C0CF0E943A13BDCFC8010E94B10DED
:101E30000E949F0480E088CFFF920F931F93CF935F
:101E4000DF93C82FD92F042F152F422F9A8D8B8DFA
:101E5000981748F080E0223031F0DF91CF911F9148
:101E60000F91FF900895FE8C8A8DCE010E94460D41
:101E70008FEFF81213C08989811102C081E0EDCF84
:101E8000CE0141960E94BF06882381F081E00115B2
:101E9000110519F381E0F8018083DFCF0E94680308
:101EA000F81630F4F394FE8E81E0D7CF81E0D5CFE1
:101EB00081E0D3CFFF920F931F93CF93DF93C82F6F
:101EC000D92F062F172F8A8D9B8D891708F5FE8C29
:101ED0008F5F8A8F8FEFF81213C08989811102C03A
:101EE00081E017C0CE0141960E94BF068823B9F059
:101EF00081E00115110569F081E0F801808309C0D6
:101F00000E946803F81668F4F394FE8E81E001C025
:101F100080E0DF91CF911F910F91FF90089581E0B4
:101F2000F8CF81E0F6CFAF92BF92CF92DF92EF92DF
:101F3000FF920F931F93CF93DF9300D000D00F92A7
:101F4000CDB7DEB7082F192FA62EB72E5D834C8391
:101F50000FB6F8940F92F801F28CF11008C020E04F
:101F60006801F1E1CF0ED11CEE24E3944CC06A2D40
:101F70007B2DC8010E94950DFA94F801F28E8085A0
:101F8000811113C00F900FBE81E00F900F900F9042
:101F90000F900F90DF91CF911F910F91FF90EF90D5
:101FA000DF90CF90BF90AF900895C80108960E942F
:101FB000BF06882339F30E943A13E4CF0F900FBE77
:101FC00080E0E3CFCE0101960E943A0822C0158E30
:101FD0002BC0168E2DC0C8010E94B10D0E949F0417
:101FE0000AC0C8010E94B10D0E949F04C8010E944E
:101FF0003A0D81113DC00FB6F8940F92F801F28CA2
:102000002E2DF110B4CF8C819D81892BB9F2222322
:10201000C9F20F900FBE0E9453030FB6F8940F92AF
:10202000F801858D8F3F99F2F801868D8F3F89F2F7
:102030000F900FBEBE016C5F7F4FCE0101960E94D4
:1020400046088111CECFC8010E943A0D882309F4B9
:10205000C2CF6C817D81C6010E946406C8010E94C6
:10206000B10D0E949F048111C6CF0E943A13C3CFC5
:1020700080E08BCFDF92EF92FF920F931F93CF936D
:10208000DF9300D000D00F92CDB7DEB7082F192F05
:102090007D836C830FB6F8940F92F801828D8111C5
:1020A00008C020E07801F1E1EF0EF11CDD24D394AB
:1020B00044C08150F801828F8085811110C00F903B
:1020C0000FBE81E00F900F900F900F900F90DF9157
:1020D000CF911F910F91FF90EF90DF900895C8016D
:1020E00008960E94BF06882351F30E943A13E7CF57
:1020F0000F900FBE80E0E6CFCE0101960E943A0815
:1021000022C0158E2BC0168E2DC0C8010E94B10DA5
:102110000E949F040AC0C8010E94B10D0E949F0442
:10212000C8010E943A0D81113DC00FB6F8940F927C
:10213000F801828D2D2D8111BCCF8C819D81892B41
:10214000B9F22223C9F20F900FBE0E9453030FB6BB
:10215000F8940F92F801858D8F3F99F2F801868DE2
:102160008F3F89F20F900FBEBE016C5F7F4FCE0193
:1021700001960E9446088111CECFC8010E943A0DF7
:10218000882309F4C2CF6C817D81C7010E94640657
:10219000C8010E94B10D0E949F048111C6CF0E9408
:1021A0003A13C3CF80E08ECFBF92CF92DF92EF92EF
:1021B000FF920F931F93CF93DF9300D000D00F9225
:1021C000CDB7DEB7082F192FB62EC72E5D834C83EF
:1021D0000FB6F8940F92F801828D811108C020E0AB
:1021E0007801F1E1EF0EF11CDD24D3944EC0F8012B
:1021F000E680F7806B2D7C2DC8010E94950DF801BB
:10220000F782E6828189811112C00F900FBE81E0B2
:102210000F900F900F900F900F90DF91CF911F9123
:102220000F91FF90EF90DF90CF90BF900895C8017D
:1022300041960E94BF06882341F30E943A13E5CFDE
:102240000F900FBE80E0E4CFCE0101960E943A08C5
:1022500022C0158E2BC0168E2DC0C8010E94B10D54
:102260000E949F040AC0C8010E94B10D0E949F04F1
:10227000C8010E943A0D81113DC00FB6F8940F922B
:10228000F801828D2D2D8111B2CF8C819D81892BFA
:10229000B9F22223C9F20F900FBE0E9453030FB66A
:1022A000F8940F92F801858D8F3F99F2F801868D91
:1022B0008F3F89F20F900FBEBE016C5F7F4FCE0142
:1022C00001960E9446088111CECFC8010E943A0DA6
:1022D000882309F4C2CF6C817D81C7010E94640606
:1022E000C8010E94B10D0E949F048111C6CF0E94B7
:1022F0003A13C3CF80E08CCFEF92FF920F931F93DE
:10230000CF93DF93C82FD92F042F152FFA8C80E09D
:10231000F11007C0DF91CF911F910F91FF90EF90C7
:102320000895ED8CCE010E94950DFA94FA8E8FEFF0
:10233000E81213C08885811102C081E0EBCFCE0185
:1023400008960E94BF06882381F081E001151105DF
:1023500009F381E0F8018083DDCF0E946803E8166D
:1023600030F4E394ED8E81E0D5CF81E0D3CF81E0EE
:10237000D1CF0F931F93CF93DF93C82FD92F8A8D7F
:10238000811106C080E0DF91CF911F910F910895D8
:102390000E811F81CE010E94950D1F830E8381E067
:1023A000F2CFE82FF92F0FB6F8940F92828D0F908D
:1023B0000FBE0895E82FF92F0FB6F8940F92928D63
:1023C0000F900FBE838D891B0895E82FF92F828D02
:1023D00008950E942E140895E82FF92F928D81E020
:1023E000911180E00895E82FF92F928D81E0238DDF
:1023F000291380E00895E82FF92FCF0103969283E7
:1024000081832FEF3FEF34832383968385839087E7
:10241000878310820895FC01118610860895CF935A
:10242000DF93282F392FE62FF72FD9011196CD9161
:10243000DC91D383C2838C819D81958384838C813D
:102440009D81DC011396FC93EE931297FD83EC8340
:1024500031872087F90180818F5F8083DF91CF9161
:102460000895CF93DF93482F592FC62FD72F288158
:102470003981FA0133962F3F320701F1DF010280E3
:10248000F381E02D8081918128173907B8F71296E2
:10249000ED91FC911397FB83EA83D583C483BD83BD
:1024A000AC831396DC93CE93129759874887FA0131
:1024B00080818F5F8083DF91CF910895FA01A7819A
:1024C000B085E5CFCF93DF93E82FF92FA085B185B5
:1024D000C281D381848195819D838C83C481D58180
:1024E000828193819B838A8311968D919C9112970F
:1024F0008E179F0749F0118610868C9181508C931E
:102500008C91DF91CF9108958481958112969C934F
:102510008E931197F0CFE82FF92F91E19083DF018F
:10252000119782E28C93119723E32C9311976C936C
:1025300011977C9311971C92119720E82C93119777
:102540001C92119722E02C93119723E02C93119762
:1025500024E02C93119725E02C93119726E02C93DF
:10256000119727E02C93119728E02C93119729E0DD
:102570002C93119720E12C9311979C93119792E142
:102580009C93119793E19C93119794E19C931197DD
:1025900095E19C93119796E19C93119797E19C93F9
:1025A000119798E19C93119799E19C93119790E270
:1025B0009C93119791E29C9311978C93119783E2CE
:1025C0008C9311974C9311975C93119786E28C939F
:1025D000119787E28C93119788E28C93119789E287
:1025E0008C93119780E38C93119781E38C93CF01A7
:1025F0008697089515BC14BC84B5826084BDEEE650
:10260000F0E080818260808389EF87BD85B581603D
:1026100085BD85B5826085BDA0913F01B091400127
:10262000CD91CDBFDD91DEBFFF91EF91DF91CF91D5
:10263000BF91AF919F918F917F916F915F914F91DA
:102640003F912F911F910F91FF90EF90DF90CF90CE
:10265000BF90AF909F908F907F906F905F904F90C2
:102660003F902F901F900F900FBE0F90089581E024
:10267000089508950F920FB6F8940F921F921124A7
:102680002F923F924F925F926F927F928F929F9282
:10269000AF92BF92CF92DF92EF92FF920F931F9370
:1026A0002F933F934F935F936F937F938F939F935A
:1026B000AF93BF93CF93DF93EF93FF93A0913F012D
:1026C000B09140010DB60D920EB60D920E94FE051E
:1026D000A0913F01B0914001CD91CDBFDD91DEBF12
:1026E000FF91EF91DF91CF91BF91AF919F918F912A
:1026F0007F916F915F914F913F912F911F910F911A
:10270000FF90EF90DF90CF90BF90AF909F908F9011
:102710007F906F905F904F903F902F901F900F9001
:102720000FBE0F9008950F920FB6F8940F921F925C
:1027300011242F923F924F925F926F927F928F92CD
:102740009F92AF92BF92CF92DF92EF92FF920F9340
:102750001F932F933F934F935F936F937F938F9329
:102760009F93AF93BF93CF93DF93EF93FF93A0918A
:102770003F01B09140010DB60D920EB60D920E9430
:10278000780381110E94FE05A0913F01B0914001A4
:10279000CD91CDBFDD91DEBFFF91EF91DF91CF9164
:1027A000BF91AF919F918F917F916F915F914F9169
:1027B0003F912F911F910F91FF90EF90DF90CF905D
:1027C000BF90AF909F908F907F906F905F904F9051
:1027D0003F902F901F900F900FBE0F9008950E9472
:1027E000931318950F931F93CF93DF93C82FD92F6F
:1027F0000E94530380919D0190919E01892B39F194
:1028000000E010E02097D9F080919F019091A00105
:10281000C80FD91F00E010E0CB3D25E0D20778F4C7
:1028200000E010E08C179D0750F400919D0110917D
:102830009E01080F191FD093A001C0939F010E9411
:102840009F04C801DF91CF911F910F91089581EAF4
:1028500091E090939E0180939D01D2CF08951092B4
:10286000A00110929F01089580919F019091A00175
:102870002BED35E0A901481B590BCA010895FB0156
:10288000DC0102C001900D9241505040D8F70895EC
:102890000F931F93CF93DF93E0917F07F091800711
:1028A000238110E000E021FD0EC00FEF1FEFC801F3
:1028B000DF91CF911F910F9108950995892B11F008
:1028C0000FEF1FEFCE01EC01899160917F077091AE
:1028D0008007DB011896ED91FC918111EECF8AE023
:0C28E0000995892B21F3E1CFF894FFCF7C
:1028EC0000000002000000008F0000000000034800
:1028FC00492046554E4300484920464F4F00496EEB
:10290C00697420656E64007461736B466F6F00743C
:0E291C0061736B46756E630049444C450000C4
:00000001FF
